:020000041000EA
:100000006F00601A6F00201A6F00E0196F00A019CE
:100010006F0060196F0020196F00E0186F00A018C2
:100020006F0060186F0020186F00E0176F00A017B6
:100030006F0060176F0020176F00E0166F00A016AA
:100040006F00802D6F0020166F00E0156F00A01567
:100050006F0080156F0020156F00E0146F00A01472
:100060006F0060146F0020146F00E0136F00A01386
:100070006F0060136F0020136F00E0126F00A0127A
:100080006F00400C6F0020126F00E0112A8311C630
:100090002300B3007D16050365FE8280B7070110BB
:1000A0001307800523A2E7627D558280B707011000
:1000B0001307800523A2E7627D558280B7070110F0
:1000C0001307800523A2E7627D558280B7070110E0
:1000D0001307800523A2E76201458280B70701105C
:1000E0001307800523A2E7627D558280B7070110C0
:1000F0001307800523A2E7627D558280B7070110B0
:100100001307800523A2E7627D558280370701101F
:100110008327475F91C73E95232AA75E3E8582804D
:10012000B7070110938787623E95232AA75E3E8515
:100130008280B70701101307800523A2E7627D556F
:10014000828001A0170102001301C1EB973C00005F
:10015000938C4CDA170D0100130DCDEA970D0100B9
:10016000938D8DF0635ABD0103AE0C002320CD01A9
:10017000910C110DE3DAADFF170D0100130DCDEE5B
:10018000970D0100938D8D4A6357BD0123200D000B
:10019000110DE3DDADFF1305000093050000EF0036
:1001A000207C6F00400001A0411122C636C43AC233
:1001B0003EC00008B70702119C478583858B93F7E3
:1001C000F70FC1CBB7070211DC438583858B93F70B
:1001D000F70FC1C3B7070211984397070100938730
:1001E000A7429C431377F70F970601009386C6EF4B
:1001F000B6972380E700970701009387274198432C
:10020000F54763C8E704970701009387E73F9C43DE
:1002100013871700970701009387073F98C3970735
:1002200001009387A73E9C4313871700970701009F
:100230009387C73D98C3970701009387E73C98438E
:10024000FD4763D8E700970701009387E73B23A0AA
:100250000700B70702119C478983858B93F7F70F37
:10026000C5C7B7070211DC438983858B93F7F70F66
:10027000C1CF97070100938767389843970701001C
:10028000938707389C43631EF70097070100938705
:10029000673723A00700370702111C47ED9B1CC7D7
:1002A000A5A0970701009387A7359C439386170065
:1002B000170701001307C73414C3170701001307FA
:1002C000A7DABA9783C7070013F7F70FB70702112A
:1002D00098C3970701009387E7329C431387F7FF82
:1002E000970701009387073298C397070100938708
:1002F000273198439307F00763D8E7009707010079
:100300009387073023A0070001003244A24612471A
:1003100082474101730020305D7186C696C49AC23F
:100320009EC022DE2ADC2EDA32D836D63AD43ED22D
:1003300042D046CE72CC76CA7AC87EC68008B787CD
:100340000111DC438583858B93F7F70F85CB9707E6
:1003500001009387E72B9C4389CF97070100938780
:10036000272B9843970701009387C72A9C433E8514
:100370000297378701115C43F59B5CC30100B640CF
:10038000A6421643864372546255D2554256B2561F
:10039000225792570258F248624ED24E424FB24F05
:1003A000616173002030797122D60018232EA4FCDD
:1003B000232604FE31A08327C4FE85072326F4FEEE
:1003C0008327C4FE0327C4FDE3C7E7FE0100010045
:1003D000325445618280011122CE00102326A4FEF2
:1003E0002324B4FE8327C4FE63C007020327C4FE90
:1003F000CD4763CBE700832784FE63C7070003274D
:1004000084FEB94763D4E70081472DA097260000FA
:100410009386C6F8032784FEBA878A07BA978A07A5
:100420000327C4FEBA978A07B6979C4393B7170071
:1004300093F7F70F3E857244056182801D71A2CE4D
:1004400080102326A4FA2324B4FA89472324F4FE37
:100450004147832784FEB307F74086072322F4FE33
:100460000327C4FA832784FEBA972326F4FC0327C4
:10047000C4FA832784FE3E97832744FEBA97232835
:10048000F4FC0327C4FA832784FEBA97232AF4FCDA
:100490000327C4FA832784FE3E97832744FEBA9736
:1004A000232CF4FC032784FA832784FEBA97232E97
:1004B000F4FA032784FA832784FEBA972320F4FCF6
:1004C000032784FA832784FE3E97832744FEBA9746
:1004D0002322F4FC032784FA832784FE3E97832794
:1004E00044FEBA972324F4FC232604FE59A883274C
:1004F000C4FE8A07C117A29783A7C7FD13D7F74188
:100500007D8BBA9795872320F4FE8327C4FE8A0744
:10051000C117A29783A7C7FC13D7F7417D8BBA9762
:100520009587232EF4FC832704FE63C0070203276C
:1005300004FECD4763CBE7008327C4FD63C70700F4
:100540000327C4FDB94763D4E700854789A09726F0
:1005500000009386A6E40327C4FDBA878A07BA97EA
:100560008A07032704FEBA978A07B69798438547F8
:100570006314F700854721A88327C4FE8507232637
:10058000F4FE0327C4FE8D47E3D3E7F681473E859B
:10059000764425618280011122CE00109707010068
:1005A0009387C7079843A947B367F7022326F4FE4A
:1005B00097070100938787069843A9473347F702B7
:1005C000A947B367F7022324F4FE97070100938736
:1005D000E7049843930740063347F702A947B367F8
:1005E000F7022322F4FE970701009387270398431D
:1005F0009307803E3347F702A947B367F7022320EA
:10060000F4FE832704FE1397C700832744FEA20746
:100610005D8F832784FE9207B366F700B727021128
:100620000327C4FE558F98C3010072440561828080
:10063000011106CE22CC001097070100938707FE18
:1006400023A0070097070100938707FD23A0070059
:10065000232604FE6DA0232404FE41A89726000053
:100660009386C61E0327C4FEBA878A07BA978A07ED
:10067000032784FEBA978A07B69798438547631085
:10068000F70497060100938626A80327C4FEBA87BD
:100690008A07BA978A07032784FEBA978A07B6970C
:1006A000054798C397070100938707F79C43138773
:1006B000170097070100938727F698C315A09706A0
:1006C0000100938666A40327C4FEBA878A07BA97F7
:1006D0008A07032784FEBA978A07B69723A00700E4
:1006E000832784FE85072324F4FE032784FECD4759
:1006F000E3D6E7F68327C4FE85072326F4FE032707
:10070000C4FEB947E3D9E7F47935B7470211370793
:10071000008098C3232204FE31A0832744FE85076E
:100720002322F4FE032744FE9307703EE3D7E7FE3F
:10073000B747021123A007000100F240624405619F
:100740008280797106D622D40018232EA4FC23229D
:1007500004FE71A0EF00D0172A87BD47B367F702E8
:100760002326F4FEEF00D0162A87D147B367F7029D
:100770002324F4FE0327C4FE954763D3E70203272F
:10078000C4FEA14763CEE700032784FE9D4763D9DB
:10079000E700032784FEB14763C4E700854711A043
:1007A00081472320F4FE97260000938626BF032767
:1007B000C4FEBA878A07BA978A07032784FEBA97C6
:1007C0008A07B6979C4381EF0327C4FE9D476308C1
:1007D000F700832704FE81E785472322F4FE832761
:1007E00044FEADDB832784FE96071387170083271B
:1007F000C4FD98C38327C4FE960713871700832779
:10080000C4FDD8C30100B250225445618280411119
:1008100006C622C40008970701009387E7D913078B
:10082000000298C397070100938707D91307000EAA
:10083000D8C397070100938727D823A407009707F9
:100840000100938767D723A607001705010013054A
:10085000A5D7C53D97070100938707D7094798C7D4
:1008600097070100938747D623A6070017050100C5
:10087000130585D6F935970701009387E7D523A49B
:10088000070097070100938727D50947D8C71705A1
:100890000100130565D57535970701009387C7D407
:1008A000795798C797070100938707D423A60700B5
:1008B00097070100938747D09843B7470211D8C3E1
:1008C00097070100938747CFD843B747021198C7CE
:1008D00097070100938747CF9843B7470211D8C7BE
:1008E00097070100938747CED843B747021198CBAB
:1008F00097070100938747CE9843B7470211D8CB9B
:1009000097070100938747CDD843B747021198CF87
:1009100097070100938747CD9843B7470211D8D76F
:1009200097070100938747CCD843B747021198DB5C
:10093000B74702111307C02BD8CFB747021123A026
:100940000702B74702111307C00DD8D3B7470211EA
:100950001307700C98D70100B240224441018280F5
:10096000317106DF22DD8001B71701119C4BB717EB
:1009700001117D5798CB6D39593D97070100938739
:10098000E7C9984397070100938707C99C436344CD
:10099000F70297070100938727C89C43635DF00027
:1009A000B74702111307B00ED8CFB747021113078C
:1009B000400698D301A0970701009387E7BF9C43A7
:1009C0002326F4FE97070100938707BFDC43232407
:1009D000F4FEB7170011938707809C43858B93F72C
:1009E000F70F99C7832784FEF1172324F4FE05A08F
:1009F000B7170011938707809C438D83858B93F7EE
:100A0000F70F91C7832784FE91072324F4FEB717BD
:100A10000011938707809C438583858B93F7F70F9D
:100A200099C78327C4FEF1172326F4FE05A0B71744
:100A30000011938707809C438983858B93F7F70F79
:100A400091C78327C4FE91072326F4FE8327C4FEA3
:100A500063D3070297070100938707B6DC43138728
:100A600007F2FD4763E5E7009307002611A08147E1
:100A70002326F4FE3DA00327C4FE9307002663D27D
:100A8000E70297070100938727B3DC43138707F238
:100A9000FD4763E4E700814719A09307002623265A
:100AA000F4FE97070100938727B1DC43BE85032539
:100AB000C4FE6932AA8781EB970701009387C7AF0D
:100AC0000327C4FE98C3970701009387E7AE9C43B2
:100AD000832584FE3E859D32AA8781EB970701001E
:100AE000938787AD032784FED8C3970701009387B8
:100AF000A7AC9C43C10713D7F7417D8BBA97958765
:100B00002326F4FC97070100938707ABDC43C1075A
:100B100013D7F7417D8BBA9795872324F4FC83275D
:100B2000C4FC63C107080327C4FCCD4763CCE706B8
:100B3000832784FC63C80706032784FCB94763C383
:100B4000E70697F600009386265C032784FCBA87A5
:100B50008A07BA978A070327C4FCBA978A07B69709
:100B6000984385476310F70497F600009386C659AB
:100B7000032784FCBA878A07BA978A070327C4FC2D
:100B8000BA978A07B69723A00700970701009387B3
:100B9000E7A89C431387170097070100938707A8CE
:100BA00098C3D53A97070100938707A22326F4F844
:100BB00097070100938747A22328F4F897070100BD
:100BC000938787A2232AF4F8971700009387077B5F
:100BD0009043D4439847DC47232EC4F62320D4F80F
:100BE0002322E4F82324F4F8971700009387077A68
:100BF0009043D4439847DC472326C4F62328D4F6F1
:100C0000232AE4F6232CF4F6232204FE1DA68327D0
:100C100044FE8A07C117A29783A7C7F9232CF4FAC9
:100C2000832784FB9C43FD17FD8B639A072883274A
:100C300084FBDC43FD17FD8B63930728832784FB2C
:100C40009C43FD1713D7F7417D8BBA979587232ACD
:100C5000F4FA832784FBDC43FD1713D7F7417D8B20
:100C6000BA9795872328F4FAFD572320F4FE8327AB
:100C700084FBDC4763D50700232004FE1DA88327DF
:100C800084FBDC476356F00085472320F4FE15A063
:100C9000832784FB9C4763D6070089472320F4FE03
:100CA00009A8832784FB9C476355F0008D472320C8
:100CB000F4FEFD57232EF4FC832704FE81E78547CD
:100CC000232EF4FC032704FE85476314F700232E2C
:100CD00004FC032704FE89476315F7008D47232E84
:100CE000F4FC032704FE8D476315F7008947232E84
:100CF000F4FC232C04FC832704FBFD17BE8503258D
:100D000044FBEFF04FEDAA8781CF832784FD138743
:100D10001700232CE4FC8A07C117A29723A607F625
:100D2000832704FB8507BE85032544FBEFF0AFEA6C
:100D3000AA8789CF832784FD13871700232CE4FC1F
:100D40008A07C117A297054723A6E7F6832744FB26
:100D5000FD17832504FB3E85EFF0EFE7AA8789CFD7
:100D6000832784FD13871700232CE4FC8A07C1170F
:100D7000A297094723A6E7F6832744FB8507832527
:100D800004FB3E85EFF02FE5AA8789CF832784FDFA
:100D900013871700232CE4FC8A07C117A2970D477D
:100DA00023A6E7F6832784FD635BF010032784FD09
:100DB000854763DFE70A0327C4FDFD57630AF70A87
:100DC000232A04FC232804FCA1A0832704FD8A070E
:100DD000C117A29783A7C7F60327C4FD6305F702CF
:100DE000032744FD93071700232AF4FC832704FDFF
:100DF0008A07C117A29783A6C7F693172700C117C2
:100E0000A29723AED7F4832704FD85072328F4FC9B
:100E1000032704FD832784FDE349F7FA832744FD74
:100E2000635EF00875242A87832744FDB367F702C1
:100E30002326F4FA8327C4FA8A07C117A29783A747
:100E4000C7F52324F4FA832784FA8A07C117A297E7
:100E500003A7C7F8832784FB98C7832784FA8A07E8
:100E6000C117A29703A7C7F7832784FBD8C7B9A0E8
:100E700085242A87832784FDB367F7022322F4FAA7
:100E8000832744FA8A07C117A29783A7C7F62320AE
:100E9000F4FA832704FA8A07C117A29703A7C7F8B1
:100EA000832784FB98C7832704FA8A07C117A29770
:100EB00003A7C7F7832784FBD8C711A001008327A6
:100EC00084FB9843832784FB9C47BA97232EF4F82E
:100ED000832784FBD843832784FBDC47BA97232CE2
:100EE000F4F8832584F90325C4F9EFF02FD5AA87F8
:100EF00095C3832784FB9C473307F040832784FBFB
:100F000098C7832784FBDC473307F040832784FBA3
:100F1000D8C719A8832784FB0327C4F998C383275C
:100F200084FB032784F9D8C3832744FE8507232243
:100F3000F4FE032744FE8947E3DBE7CC97F7000084
:100F400093878767984397F700009387E7679C43E9
:100F50001D8F9357F7413D8F1D8F97F700009387A3
:100F6000A765D44397F7000093870766DC43B387F0
:100F7000F64093D6F741B58F958FBA972322F4FCAC
:100F800097F7000093874763984397F7000093878C
:100F9000A7649C431D8F9357F7413D8F1D8F97F793
:100FA000000093876761D44397F700009387C76277
:100FB000DC43B387F64093D6F741B58F958FBA9748
:100FC0002320F4FC97F700009387075F984397F777
:100FD0000000938767619C431D8F9357F7413D8FB6
:100FE0001D8F97F700009387275DD44397F7000084
:100FF0009387875FDC43B387F64093D6F741B58F7D
:10100000958FBA97232EF4FA032744FCCD4763DC6F
:10101000E700032704FCCD4763D7E7000327C4FBA1
:10102000CD4763C1E702B74702113707F00098C305
:10103000B7871E0013850748EFF0EFB6EFF04FDFDC
:10104000EFF0EFFC97F70000938707579843B747F7
:101050000211D8C397F7000093870756D843B747C4
:10106000021198C797F70000938707569843B74730
:101070000211D8C797F7000093870755D843B747A1
:10108000021198CB97F70000938707559843B7470D
:101090000211D8CB97F7000093870754D843B7477E
:1010A000021198CF97F70000938707549843B747EA
:1010B0000211D8D797F7000093870753D843B74753
:1010C000021198DBB16713850735EFF0CFAD75B02E
:1010D0004111B707011022C403A4070606C61C5C11
:1010E000B9E76145DD2808DC09EDB7360010373572
:1010F0000010938686CF01469305E004130505D1C1
:101100008D28B737CDAB9387E7301CC1B7176DE695
:10111000938747235CC1B7E705009387C7EE1CC5DB
:10112000AD472316F5000547814718C95CC90C5C1B
:10113000B786954C37F651589849DC499386D6F2D4
:101140001306D6423306C702B2402244B387D70201
:101150003305D702B2973337D702BA971307150072
:101160003335A7003E95C8C998C9060505814101D8
:101170008280B707011083A707064111328806C68F
:10118000AA882E87C8473686630E0800B737001036
:10119000938787D6B7350010C686938585D71128E3
:1011A000EF00B02437380010930748D7130848D70A
:1011B000D5B739713EDAB707011032D42E86AA8529
:1011C00003A5070636D6341006CE3AD842DC46DEF2
:1011D00036C61924F24021618280B7070110AA8522
:1011E00003A5070665A0D5C183A7C5FF011122CCC1
:1011F00006CE1384C5FF63D307003E942AC6EF00D2
:10120000906E370701108327C761324591EB232287
:101210000400232E87606244F24005616F00D06CA9
:10122000637DF4001040B306C4006396D700944376
:10123000DC43B29614C05CC0E9BF3E87DC4399C36F
:10124000E37DF4FE14433306D700631F860010408D
:10125000B29614C33306D700E39FC7FA9043DC432A
:10126000B29614C35CC345BF6375C400B1471CC1CB
:101270005DB71040B306C4006396D7009443DC43C7
:10128000B29614C05CC040C379B78280011126CAEF
:1012900093843500F1984AC806CE22CC4EC6A104EC
:1012A000B1472A8963F8F404B14463E7B4044A857A
:1012B000EF007063B70701101387C7611843938667
:1012C000C7613A8429E437040110130404621C4006
:1012D00089E781454A85212F08C0A6854A85012FC7
:1012E000FD59631A3507B1472320F9004A85EF00FD
:1012F000B05F31A0E3DB04FAB1472320F9000145D8
:10130000F2406244D2444249B249056182801C40A5
:10131000858F63CF07022D466376F6001CC03E948E
:1013200004C029A05C40631387029CC24A85EF0079
:10133000B05B1305B4009307440061993307F5408F
:10134000E300F5FC3A94898F1CC05DBF5CC3F9BF14
:101350002287404085BF130435007198E30285FC65
:10136000B305A4404A856125E31C35FBADBF1C468F
:10137000FD171CC663D90700184E63C5E700A947CF
:101380006393F50069AD1C422E851387170018C2C0
:101390002380B7008280011122CC26CA4AC84EC6DB
:1013A00052C406CE2A89AE893284B304D6007D5A4F
:1013B00063149400014509A8834504004E864A85BC
:1013C0007D370504E31645FFF2406244D2444249AA
:1013D000B249224A05618280717122D526D34AD151
:1013E0004ECF06D752CD56CB5AC95EC762C566C32B
:1013F0006AC1EEDEAA89AE843289368409C51C4DE5
:1014000099E3EF00F025B73700109387C7E56395A0
:10141000F40E83A4490083D7C400A18B6380071016
:101420009C48638D070E93070002A304F102930703
:10143000000302D22305F10222C6930C5002373B6F
:101440000010B73B0010373D0010371C0010930A06
:1014500000004A848347040099C36396970FB30D35
:101460002441630D2401EE864A86A6854E852537E4
:10147000FD576305F51E9257EE973ED28347040051
:10148000638E071CFD571309140002C802CE3ECA22
:1014900002CCA309010482D4854D83450900154679
:1014A00013058BDAEF009042C2471304190051ED87
:1014B00013F7070109C713070002A309E10413F793
:1014C000870009C71307B002A309E1048346090096
:1014D0001307A0026384E608F2474A848146254642
:1014E00029450347040093051400130707FD637C97
:1014F000E60AADCE3ECE9DA8B73700109387C7E76A
:101500006395F40083A4890039B7B7370010938737
:10151000C7E3E392F4F083A4C900F5BDA6854E8528
:101520007D2BE30205F07D55BA502A549A540A598E
:10153000FA496A4ADA4A4A4BBA4B2A4C9A4C0A4D43
:10154000F65D4D618280050431B713078BDA198D82
:101550003395AD00C98F3EC8228981B732479306C3
:101560004700184336C6634907023ACE03470400D2
:101570009307E0026310F706034714009307A002E5
:10158000631BF702B2470904138747009C433AC61E
:1015900063C107023ECA3DA83307E04093E7270036
:1015A0003ACE3EC8E1B7B387A7022E848546BA97E4
:1015B0000DBFFD57C5B7050402CA814681472546C0
:1015C00029450347040093051400130707FD637FB3
:1015D000E604E9F2834504000D4613850BDBEF00BA
:1015E000F02E01CD93870BDB1D8DC247130700043E
:1015F0003317A700D98F05043EC883450400194658
:1016000013054DDB130914002304B102EF00102C65
:1016100031CD63970A024247B2471377071009CFCB
:1016200091073EC69257D2973ED225B5B387A702FF
:101630002E848546BA9771B79D07E19BA107D5B760
:10164000780093066C3926860C084E8597000000BA
:10165000E7000000FD572A8AE316F5FC83D7C40093
:1016600093F70704E39107EC12557DBD78009306CC
:101670006C3926860C084E85112AE9BF797152CC47
:101680009C493A8A984522D44AD04ECE56CA06D6AC
:1016900026D25AC85EC6AA892E843289B68A63D3F6
:1016A000E700BA872320F9000347340401C7850700
:1016B0002320F9001C4093F7070291C783270900F4
:1016C00089072320F9000440998891E8130B9401BD
:1016D000FD5B5C4403270900998F63CCF4048347C6
:1016E0003404B336F0001C4093F70702A5EB130651
:1016F0003404D6854E85029AFD576303F5041C40D9
:1017000011478144998B6399E7004444832709007A
:101710009D8C63D3040081441C4418486354F70033
:10172000998FBE94014969047D5B63982405014546
:1017300009A885465A86D6854E85029A631E75018C
:101740007D55B250225492540259F249624AD24A0B
:10175000424BB24B456182808504A5BF3307D4005C
:1017600013060003A301C70403475404938716001C
:10177000A2978906A381E7049DBF85462286D68568
:101780004E85029AE30E65FB050945B7797122D4AF
:1017900026D24AD04ECE06D652CC56CA5AC883C894
:1017A000850193078007AA842E843289B68963EE67
:1017B0001701930720069386350463ED1701638EA6
:1017C000081A93078005638FF816930A24042301EF
:1017D00014050DA89387D8F993F7F70F5546E366DC
:1017E000F6FE373600108A07130646DEB2979C4392
:1017F00082871C43938A2504938647009C4314C325
:101800002381F504854769AA9C41084313F607081C
:10181000930545000DC21C410CC33738001063D836
:1018200007001307D002B307F040A301E404130834
:10183000C8DB2947A1A013F607041C410CC371DEC5
:10184000C207C187D9BF90411C4313750608938511
:10185000470001C50CC39C4339A0137606040CC392
:101860007DDA83D70700373800101307F006130816
:10187000C8DB638EE80C2947A3010404504010C460
:10188000634506000C40ED990CC099E3B68A19CE69
:10189000B68A33F6E702FD1A429603460600238015
:1018A000CA003E86B3D7E702E375E6FEA147631E92
:1018B000F7001C40858B91CB58401C4863C7E7005C
:1018C00093070003A38FFAFEFD1AB386564114C88E
:1018D0004E87CA867000A28526854D337D5A6315D2
:1018E000450D7D55B250225492540259F249624A34
:1018F000D24A424B456182809C4193E707029CC1DA
:101900003738001093088007130808DDA302140578
:1019100010400C43137506089C41910511E51375A1
:10192000060419C1C207C1830CC31377160001C78F
:101930001366060210C04147A1F310401376F6FD6E
:1019400010C01DBF373800101308C8DBC1B72147CE
:1019500025B790411C43CC491378060813854700EE
:101960006306080008C39C438CC301A808C3137610
:1019700006049C4375DA2390B70023280400B68A36
:1019800081BF1C43D04181459386470014C383AA7D
:1019900007005685252F01C53305554148C05C40D9
:1019A0001CC8A30104042DB714485686CA85268591
:1019B0008299E30845F31C40898B8DE7B247484480
:1019C000E352F5F23E8539BF85465686CA8526859F
:1019D0008299E30865F1050A5C443247998FE34533
:1019E000FAFEE9BF014A930A94017D5BF5B7411104
:1019F00022C426C22A84B70401102E8506C623A25B
:101A00000462EFE0AFF0FD576316F50083A7446270
:101A100091C31CC0B2402244924441018280011112
:101A200022CC26CA4AC806CE4EC6AA842E89328443
:101A300001C51C4D91E32D21B73700109387C7E5F1
:101A40006319F406C0401C4C1CC48357C400A18B0E
:101A5000C9C31C48BDCF1C4808409379F90F1379BE
:101A6000F90F1D8D5C486346F500A2852685C92CBB
:101A70002DE51C440505FD171CC41C4013871700E9
:101A800018C0238037015C486389A7008357C400CE
:101A9000858B81CBA9476316F900A28526854D2445
:101AA0000DEDF2406244D244B2494A854249056193
:101AB0008280B73700109387C7E76314F40080442F
:101AC00059B7B73700109387C7E3E31EF4F6C04455
:101AD0009DBFA285268521203DDD7D59D9B74111C5
:101AE000B707011026C283A4070622C44AC006C64F
:101AF0002A892E8489C49C4C99E326859526B7377C
:101B000000109387C7E56317F402C0408317C40031
:101B10001397070193F687004183B5EA937607018F
:101B200095EA25472320E90093E707042316F400EC
:101B30007D5579A8B73700109387C7E76314F40081
:101B40008044E9B7B73700109387C7E3E310F4FC8C
:101B5000C0446DBF118B15C74C5891C993074404FD
:101B60006385F5004A85EFF00FE8232A04028357C6
:101B7000C4002322040093F7B7FD2316F4001C4889
:101B80001CC08357C40093E787002316F4001C4849
:101B900081EF8357C4001307002093F7072863855C
:101BA000E700A2854A8561218317C40013970701C6
:101BB00093F6170041839DC2544823240400B306C2
:101BC000D04014CC1448014581E61377070829FF5B
:101BD000B240224492440249410182809376270018
:101BE000014691E2504810C4F1BF4111194506C6A3
:101BF000B12B0545EFE0EFD483D7C500011122CC0E
:101C000026CA06CE4AC84EC613F78700AA842E8479
:101C10007DE3D8416347E000B8416344E0000145FB
:101C20007DA858546DDF856603A90400F58F23A0B5
:101C300004000C50ADCF68488357C400918B99C7FE
:101C40005C401D8D5C5899C33C401D8D5C540C500C
:101C50002A86814626858297FD570357C400631D57
:101C6000F5009440F54763E3D708B707C0DFF917DD
:101C7000B3D7D740858BBDEB1C48232204001CC082
:101C800085677D8F19C7FD576314F5009C4091E36C
:101C900068C84C5823A02401D9D193074404638514
:101CA000F5002685EFF02FD4232A04028DBF854648
:101CB000014626850297FD57E310F5F89C40ADDFFD
:101CC00075476385E70059476395E70023A0240122
:101CD000B9B78357C40093E707042316F400F24012
:101CE0006244D2444249B2490561828013670704C5
:101CF0002316E400EDB783A90501E38209F203A9E5
:101D000005008D8B23A0350133093941014791E34B
:101D1000D84918C4E35520F11C540C50CA864E868D
:101D200026858297634AA0008357C4007D5593E7B8
:101D300007042316F40065B7AA993309A940D9BF4F
:101D40009C49B9CF011122CC06CE2A8411C51C4D65
:101D500081E72EC63122B245B73700109387C7E519
:101D6000639BF5004C408397C50095C7228562446C
:101D7000F240056151B5B73700109387C7E7639408
:101D8000F5000C44CDB7B73700109387C7E3E39C49
:101D9000F5FC4C44C9BFF2406244014505618280B4
:101DA00001458280411122C406C62A842316B5004B
:101DB0002317C50023200500232205002324050046
:101DC0002322050623280500232A0500232C0500CD
:101DD000214681451305C505EFE04FABB72700103D
:101DE0009387E7185CD0B72700109387E71B1CD4B4
:101DF000B72700109387C7205CD4B72700109387BC
:101E00002724B24000D01CD8224441018280B7254B
:101E10000010938505D489AA411126C29307800634
:101E20009384F5FFB384F4024AC02E8922C406C607
:101E300093854407EFF08FC52A8401CD2320050048
:101E400023222501310508C4138684068145EFE06D
:101E5000EFA3B2402285224492440249410182808C
:101E60001C4DBDE34111B727001022C406C693875D
:101E7000E7E01CD5B737001083A7C7EE232405047D
:101E800023260504232805042A846314F5008547C6
:101E90001CCD22851D2848C02285052808C422851E
:101EA0002D2048C4484001469145ED3D0844054673
:101EB000A545CD3D48440946C945ED358547B24065
:101EC0001CCC22444101828082804111B73700102E
:101ED00026C283A4C7EE4AC006C69C4C22C42A89E7
:101EE00099E32685B53F938484048044DC40FD1744
:101EF00063D607009C40B9CF8440C5BF0317C40018
:101F000039E7C17785072322040623200400232212
:101F10000400232404005CC423280400232A0400B2
:101F2000232C0400214681451305C405EFE00F96DC
:101F3000232A0402232C0402232404042326040459
:101F4000B240228522449244024941018280130416
:101F5000840671BF91454A85C13588C02A8449FDF0
:101F6000B1472320F900E9BF797122D44AD04ECE7F
:101F700052CC5AC85EC606D626D256CA2A892E8A9E
:101F8000130485048149054BFD5B0444832A440006
:101F9000FD1A63D00A0200406DF8B25022549254E8
:101FA0000259624AD24A424BB24B4E85F2494561D0
:101FB000828083D7C400637BFB008397E400638740
:101FC0007701A6854A85029AB3E9A900938484061D
:101FD000C1B75971A2D42E848395E500A6D2CAD088
:101FE00086D6B284368963D405028357C40093F73A
:101FF000070885CF814713070004B65026542320D5
:10200000F90098C0065996540145656182803000F8
:10201000712CE34C05FC3247BD67F98F7977BA978D
:1020200093B7170013070040C9BF8147E5BF83D7A7
:10203000C500011122CC06CE26CA4AC8898B2E843F
:1020400089CF930774041CC01CC885475CC8F24044
:102050006244D24442490561828074003000AA84FF
:102060008D3FA2452A892685EFF04FA201ED831707
:10207000C40013F7072061FFF19B93E727002316A5
:10208000F400C1B7B72700109387E7E09CD48357CB
:10209000C40008C008C893E707082316F400A24745
:1020A0005CC8B24789CF8315E40026850D2C01C991
:1020B0008357C400F19B93E717002316F40083575E
:1020C000C40033E527012316A40051B793F5F50F9B
:1020D0002A966314C5000145828083470500E38D7D
:1020E000B7FE0505FDB782808280011122CC06CEA5
:1020F000FD472A8463F9B700D9471CC17D55F240DA
:102100006244056182807C412E8691C71397250029
:10211000BA97984319EB228532C68528AA8522856D
:1021200062443246F240056105A885460145E30850
:10213000D7FCFD566316D700D9471CC00545C1B76B
:102140002E8523A007000297014555BFB707011050
:10215000AA8503A5070651BF411122C426C22A84BD
:10216000B70401102E85B28506C623A20462EFD003
:10217000FFF6FD576316F50083A7446291C31CC0A8
:10218000B24022449244410182806FD03FF341111A
:1021900022C42E848395E50006C6652263490500A6
:1021A0007C48AA977CC8B240224441018280835770
:1021B000C4007D777D17F98F2316F400EDB783D720
:1021C000C500011122CC26CA4AC84EC606CE93F7D6
:1021D0000710AA842E843289B68991C78395E500B9
:1021E000894601462D228357C4007D777D17F98FDC
:1021F0008315E4002316F4006244F240CE864A863A
:10220000B24942492685D24405613DA8411122C404
:102210002E848395E50006C6DD287D578357C400CC
:10222000631BE5007D777D17F98F2316F400B2401C
:102230002244410182800567D98F2316F40068C8C3
:10224000FDB78395E5001DA8411122C426C22A844A
:10225000B70401102E85B285368606C623A2046215
:10226000EFD03FEDFD576316F50083A7446291C39D
:102270001CC0B2402244924441018280411122C4D8
:1022800026C22A84B70401102E8506C623A2046242
:10229000EFD0DFE0FD576316F50083A7446291C3DA
:1022A0001CC0B2402244924441018280411122C4A8
:1022B00026C22A84B70401102E85B28506C623A241
:1022C0000462EFD0BFDEFD576316F50083A74462BA
:1022D00091C31CC0B240224492444101828041110A
:1022E00022C426C22A84B70401102E8506C623A262
:1022F0000462EFD0BFDDFD576316F50083A744628B
:1023000091C31CC0B24022449244410182804111D9
:1023100022C426C22A84B70401102E85B2853686CF
:1023200006C623A20462EFD07FDCFD576316F500DA
:1023300083A7446291C31CC0B2402244924441012D
:102340008280411122C426C22A84B70401102E853E
:10235000B285368606C623A20462EFD03FDAFD5767
:102360006316F50083A7446291C31CC0B2402244A7
:102370009244410182800000000000000000000043
:10238000FEFFFFFF02000000FEFFFFFF0200000053
:10239000000000000000000001000000010000003B
:1023A0000100000001000000010000000100000029
:1023B0000100000001000000010000000100000019
:1023C0000100000001000000010000000100000009
:1023D00001000000010000000100000001000000F9
:1023E00001000000010000000100000000000000EA
:1023F00000000000000000000000000000000000DD
:1024000001000000000000000000000000000000CB
:1024100000000000000000000000000000000000BC
:1024200001000000000000000000000000000000AB
:10243000000000000100000001000000000000009A
:102440000100000001000000010000000000000089
:102450000100000000000000010000000100000079
:102460000100000001000000010000000000000069
:102470000100000000000000010000000100000059
:102480000100000001000000010000000000000049
:10249000010000000000000000000000000000003B
:1024A000000000000000000000000000000000002C
:1024B000010000000000000000000000000000001B
:1024C000000000000000000000000000000000000C
:1024D00000000000010000000100000000000000FA
:1024E00001000000000000000100000001000000E9
:1024F00001000000000000000100000000000000DA
:1025000001000000000000000100000001000000C8
:1025100001000000000000000100000000000000B9
:1025200001000000010000000100000000000000A8
:10253000000000000000000000000000000000009B
:10254000000000000000000001000000000000008A
:10255000010000000000000000000000000000007A
:10256000000000000000000000000000000000006B
:102570000000000001000000010000000100000058
:102580000100000001000000010000000000000048
:102590000100000001000000010000000100000037
:1025A0000100000001000000010000000000000028
:1025B0000100000001000000010000000100000017
:1025C0000100000001000000000000000000000009
:1025D00000000000000000000000000000000000FB
:1025E00001000000000000000000000000000000EA
:1025F00000000000000000000100000000000000DA
:1026000000000000000000000000000000000000CA
:1026100000000000000000000100000001000000B8
:1026200001000000010000000100000000000000A7
:102630000100000001000000010000000100000096
:102640000100000001000000010000000000000087
:102650000100000001000000010000000100000076
:102660000100000001000000010000000000000067
:10267000000000000000000000000000000000005A
:10268000000000000000000000000000000000004A
:10269000000000000000000000000000000000003A
:1026A000000000000000000000000000000000002A
:1026B0000000000001000000010000000000000018
:1026C0000100000001000000010000000000000007
:1026D00001000000010000000100000000000000F7
:1026E00001000000010000000100000000000000E7
:1026F00001000000010000000100000000000000D7
:1027000001000000010000000100000000000000C6
:1027100000000000000000000100000000000000B8
:1027200000000000000000000000000000000000A9
:102730000000000000000000000000000000000099
:102740000100000000000000000000000000000088
:102750000000000001000000010000000100000076
:102760000100000000000000010000000000000067
:102770000100000000000000010000000100000056
:102780000100000000000000010000000000000047
:102790000100000000000000010000000100000036
:1027A0000100000001000000010000000000000026
:1027B0000000000000000000000000000000000019
:1027C0000100000000000000000000000000000008
:1027D00000000000000000000100000000000000F8
:1027E00000000000000000000000000000000000E9
:1027F00000000000010000000100000001000000D6
:1028000001000000010000000100000001000000C4
:1028100001000000010000000100000001000000B4
:1028200001000000010000000100000001000000A4
:102830000100000001000000010000000100000094
:102840000100000001000000000000000000000086
:102850000000000000000000000000000000000078
:102860000000000000000000000000000000000068
:102870000000000000000000000000000000000058
:102880000000000000000000000000000000000048
:102890000000000000000000000000000100000037
:1028A0000100000001000000010000000100000024
:1028B0000000000001000000010000000100000015
:1028C0000100000001000000010000000100000004
:1028D00000000000010000000100000001000000F5
:1028E00001000000000000000000000001000000E6
:1028F00000000000000000000000000001000000D7
:1029000000000000010000000000000000000000C6
:1029100000000000000000000000000001000000B6
:1029200000000000010000000000000000000000A6
:102930000000000000000000000000000100000096
:102940000000000001000000010000000100000084
:102950000100000001000000010000000100000073
:102960000000000001000000010000000100000064
:102970000100000001000000010000000100000053
:102980000100000000000000000000000100000045
:102990000000000001000000000000000000000036
:1029A0000000000001000000000000000100000025
:1029B0000000000001000000000000000000000016
:1029C0000000000001000000000000000100000005
:1029D00000000000000000000000000001000000F6
:1029E00001000000010000000100000001000000E3
:1029F00001000000010000000000000001000000D4
:102A000000000000010000000100000001000000C3
:102A100001000000010000000100000001000000B2
:102A200001000000000000000000000000000000A5
:102A30000000000000000000000000000100000095
:102A40000000000000000000000000000000000086
:102A50000000000000000000000000000100000075
:102A60000000000000000000000000000000000066
:102A70000000000000000000000000000000000056
:102A80000000000000000000000000000000000046
:102A90000000000000000000000000000000000036
:102AA0000000000000000000000000000000000026
:102AB0000000000000000000000000000000000016
:102AC0000000000000000000000000000000000006
:102AD00000000000000000000000000001000000F5
:102AE00000000000000000000000000000000000E6
:102AF00000000000000000000000000001000000D5
:102B000000000000000000000000000000000000C5
:102B100000000000000000000000000001000000B4
:102B200001000000010000000100000001000000A1
:102B30000100000001000000010000000100000091
:102B40000100000001000000010000000100000081
:102B50000100000001000000010000000100000071
:102B60000100000000000000000000000100000063
:102B70000000000000000000000000000100000054
:102B80000000000000000000000000000100000044
:102B90000000000000000000000000000100000034
:102BA0000000000000000000000000000100000024
:102BB0000000000000000000000000000100000014
:102BC0000100000001000000000000000100000002
:102BD00001000000010000000100000001000000F1
:102BE00001000000010000000100000001000000E1
:102BF00000000000010000000100000001000000D2
:102C000001000000000000000000000000000000C3
:102C100000000000010000000000000001000000B2
:102C200000000000010000000000000000000000A3
:102C30000000000001000000000000000100000092
:102C40000000000001000000000000000000000083
:102C50000000000000000000000000000100000073
:102C60000100000001000000010000000100000060
:102C70000000000001000000010000000100000051
:102C80000100000001000000000000000100000041
:102C90000100000001000000010000000100000030
:102CA0000100000000000000000000000000000023
:102CB0000000000000000000000000000000000014
:102CC0000000000000000000000000000000000004
:102CD00000000000000000000000000000000000F4
:102CE00000000000000000000000000000000000E4
:102CF00000000000000000005245454E54206D6168
:102D00006C6C6F6320737563636565646564000054
:102D10002F686F6D652F7468656F5F736F7269617F
:102D20006E6F2F776F726B73706163652F7269734B
:102D300063762D676E752D746F6F6C636861696E55
:102D40002F72697363762D6E65776C69622F6E657D
:102D5000776C69622F6C6962632F7374646C69624B
:102D60002F72616E642E63002C2066756E63746929
:102D70006F6E3A2000000000617373657274696FB2
:102D80006E2022257322206661696C65643A206694
:102D9000696C6520222573222C206C696E652025C4
:102DA00064257325730A0000232D302B20000000BA
:102DB000686C4C0065666745464700003031323329
:102DC0003435363738394142434445460000000027
:102DD0003031323334353637383961626364656691
:102DE00000000000F217001008180010CA170010A9
:102DF000CA170010CA170010CA17001008180010D0
:102E0000CA170010CA170010CA170010CA170010FE
:102E10005219001046180010F8180010CA170010B8
:102E2000CA17001082190010CA17001046180010A7
:102E3000CA170010CA170010001900100000000087
:102E40000000000000000000000000000000000082
:102E50000000000000000000000000000000000072
:102E60000000000000000000000000000000000062
:102E70000000000000000000000000000000000052
:102E80000000000000000000000000000000000042
:102E90000000000000000000000000001000000022
:102EA00000000000037A5200017C01011B0D0200AA
:102EB00010000000180000000000000000000000EA
:102EC000000000001000000000000000037A520023
:102ED000017C01011B0D0200100000001800000021
:0C2EE000000000000000000000000000E6
:042EEC0000000110D1
:102EF000000000005C2E00107C2E00103C2E001004
:102F000000000000000000000000000000000000C1
:102F100000000000000000000000000000000000B1
:102F200000000000000000000000000000000000A1
:102F30000000000000000000000000000000000091
:102F40000000000000000000000000000000000081
:042F5000000001106C
:0400000510000000E7
:00000001FF
